:020000040000fa
:080000000001040000000000f3
:020000040000fa
:100200000f8c20000e7922000e01880000000000f3
:100210000c000700206b20000100200011000700e7
:10022000000020000000e000020032000000020098
:1002300000000000ec030200000000000040da00b3
:100240000000fe004440a900000020000000e00083
:100250000300320000002000a00188004440a800f4
:100260000000060091018800800078000000eb008b
:1002700015003700e280400032a0b4009101ba00be
:10028000e280400032a0b4009102ba00e280400057
:1002900032a0b4000002eb00472bde00f507b200ed
:1002a000602ce10004003a000059eb008301e900f2
:1002b000fdff3e00040037006128e100010032002c
:1002c0000082eb00040007001101ba000200e00008
:1002d000e8ff3a00000006003159ba008301e90046
:1002e0000c0032002159ba008301e90008003200f5
:1002f0000400e00003003a00e280400032a0b400b5
:10030000f5ff370011d9ba008301e900faff3a007e
:100310008100e800e180400032a0b4000000060047
:10032000ff3ffc00e7438000070078003143800076
:100330000a02020000000000f043880009002000cb
:1003400007007800214380000a020200000000003c
:1003500000805400004488000000fc0000000600fb
:1003600030158800a022a800a002ae00feff3700d2
:10037000a002aa00001480004100de000000060078
:10038000ff3ffc0030302000b00102000000000000
:100390008003780020202000b0010200000000004f
:1003a00000047800954480000538e10008003c0016
:1003b0000540e10006003c00c1bbde0041c4de0098
:1003c000088043004180de00904288000100370031
:1003d0008980a8000000fc0000000600ff3ffc0030
:1003e000f0438000314380000a0202000000000058
:1003f0008004780000448000214380000a0202004b
:100400000000000080835400e74388000000fc00e7
:100410000000060000027800810278001301c0008d
:100420004100c800f60020000600c800100180004e
:1004300000000600ff3ffc0001005000a80202007f
:100440000000000000027800820278001301c00062
:100450004100c8006202020000000000a802020081
:1004600000000000000478001943800009004200e9
:10047000a80202000000000000027800104388007b
:10048000830278001301c0004100c800620202002c
:1004900000000000a80202000000000080047800b4
:1004a00009004400da428000eb4280000a80e60046
:1004b0000a0078000b00e6000b0078004380de00a5
:1004c0002e0037004220ef0060026a000a0033006d
:1004d0002a0180000a00e00018003a001a0180009a
:1004e0000a00e00018003200020009004555de0055
:1004f00012003a00140037002a018000fbff2f0091
:100500000a00e00001003a000f0037000b50e10044
:1005100007003a001a0180000a00e0000a003200d9
:10052000020009004555de000100320006003700d8
:100530001a0228001a01880003003700fafd27007c
:100540001a0188000000370010018000000006003a
:10055000fafd23001b022c000a00e10003003d000d
:100560000b00e10003003400030037000a007800ac
:10057000010037000b007800000006000000fc00be
:1005800000000600ff3ffc00f54280004044800070
:100590000083520005004000e80202000000000055
:1005a000b00e88000600780005004000e802020056
:1005b00000000000c00e8800b0428000050040002e
:1005c000e802020000000000d00e8800040037009e
:1005d0000000e00001003c000000200000000600d8
:1005e0000000fc00000006000600fa00200798004a
:1005f0000000eb00000f78000c0037000000eb005b
:1006000010079800040037000060fe001e009000f4
:100610000000e800100798009e009000e08226008d
:10062000808f5000f8ff36001e0fe8002e0090006b
:100630009e0f1000f1ff39000080fa000000060054
:100640000000fa00e402a900e422a900e442a900a3
:10065000e462a900e4c2a900011c200091407800d6
:10066000c0cfb30000c060000014a000c0e1b7001c
:10067000210e80000000280000806000116f200023
:1006800001007000200e8800c801a900c821a9003f
:10069000c841a900c881a900c8a1a900c8c1a90072
:1006a000ca41a900ccc1bf00f043b20001c8b300e9
:1006b00001407000cce1b700c11c200091407800df
:1006c00000ccb30000c06000a040b300cce1b70094
:1006d000d201a900d221a900d241a900b010200066
:1006e0001008880005e1a900505320006008880028
:1006f00011e1a900c08a20007008880013e1a90058
:1007000040032d00d00888001fe1a90030de200042
:10071000e008880021e1a900012a2000914078002a
:1007200000ceb30000c07000a0e2b700a062a90034
:10073000112a200091407800c0cfb30000c06000b3
:100740000014a000a1e2b7000000eb001015880023
:10075000512a20009140780000ceb30000c0600014
:100760000014a000a5e2b700412a200091407800c3
:1007700000ccb30000c060005040b300a4e2b7005a
:1007800030012800401588000000eb00501588005b
:10079000a1e2a80081e0a900aac0bf007040b30098
:1007a000aae0b7009180a8008c60a8008cc0a900c6
:1007b0005109200091407800f0c8b30000c06000eb
:1007c00001c6b3000140700095e0b70090e0a900b9
:1007d0000080fa00000006000000fa0098ff070001
:1007e000d4000700ff3ffc0070002000dcfe070083
:1007f000c0458800a0002000d9fe0700d045880031
:10080000d1458000c045800002ff0700f045880008
:10081000c04580009045880084c0bf000044b200fd
:100820000004e00023003200e0448000f043880030
:10083000f044800000448800e8fe0700ff3ffc0011
:10084000b0b02000c6fe0700800078008042800023
:1008500000805000304488000000fc0031448000db
:10086000a0448000808f5000010034008980a900de
:1008700031448000b0448000808f500001003d0072
:100880008980a900404480001043880020448000f3
:100890001244800031448000e443800080017800ed
:1008a00004007800e3fe07004044880035ff07009d
:1008b00084c0a90084c0bf0001c8b300014060002b
:1008c0000004e00053003200adfe07002045800028
:1008d000104388001045800002458000c14580001b
:1008e000a44580008001780004007800d1fe070054
:1008f00030458800704580001043880050458000d6
:100900004245800091428000a4428000800178002e
:1009100004007800c7fe07008045880081458000fc
:1009200030458000808f500003003d0080458000ee
:10093000b04288000200370030458000b042880095
:10094000ff3ffc005144800020438000b1fe0700bf
:10095000e04388000000fc0071fe0700f0438000c7
:10096000604488000044800070448800ff3ffc0021
:10097000a0a020007afe070080007800804280005e
:1009800000805000e04388000000fc0064fe070087
:10099000c043800010438800b0438000a243800021
:1009a000f1438000644480008001780004007800f6
:1009b000a0fe0700c0438800d04380001043880099
:1009c000b0438000a2438000014480007444800052
:1009d000800178000400780096fe0700d04388006c
:1009e000e0448000c0448800d1448000c0438000bf
:1009f000c4000700e0448800f0448000c044880040
:100a0000d1448000d0438000be000700f04488003d
:100a100084e0a90086c0bf000042b2000004e000ec
:100a20000d00320070072000400e88005044800006
:100a30000000e80050448800514480008044800059
:100a4000808f5000020035008044800050448800b0
:100a50006700070086a0a9000060fe006eff370057
:100a600000a0fe003600f800849fbe00869fbe00f6
:100a70000000fa0086c0bf000044b2000004e0009d
:100a80001b003200504380004043880040438000f8
:100a90006101b900604380007143800002004000a2
:100aa000838048006043880071438800624380006f
:100ab000734380008043800091438000800f510089
:100ac000818f5900080035000000eb0020438800aa
:100ad00080eb2700304388006000b8006043880046
:100ae00071438800010037008e00070086c0a9000e
:100af0008460a9000080fa004f03be004f02be00d0
:100b00003600f9000080fe0000400600801f7800db
:100b10000000fa00c1e1a9000000eb00400e8800cf
:100b2000e622a9008980a9000080fa004f00780021
:100b3000004006000000fa00200e8000f04288000d
:100b4000200e80000000ea0000438800f042800090
:100b50004300dd00d0428800f142800080ff2f007a
:100b60000088b900e04288000000eb00400e8800d9
:100b7000c1e1a90010002000900e8800e0012000d3
:100b800099fe0700a1e2a800e602a800f0002000fc
:100b900095fe0700e0e02000f1fd0700804288009c
:100ba000e602a900e00120008ffe0700e622a8006f
:100bb000e00120008cfe0700f0428000b00e8800ab
:100bc000f0428000c00e8800f0428000d00e880005
:100bd000c1e1a80005e1a80011e1a80013e1a80007
:100be0001fe1a80021e1a8000080fa000000060033
:100bf0000000fa00ff3ffc0070002000d8fd070055
:100c0000c0458800a0002000d5fd0700d045880021
:100c1000d1458000c0458000fefd0700e04588000a
:100c2000e1458000f0458000808f500012003400c4
:100c3000c145800090458000808f50000300340043
:100c4000a04580000000e800a0458800c145800064
:100c500090458000808f500003003d00a04580003b
:100c60000000e900a0458800e0458000f0458800cc
:100c7000c045800090458800e1458000f045800037
:100c8000808f500012003d00c145800090458000db
:100c9000808f500003003400a04580000000e90070
:100ca000a0458800c145800090458000808f50009d
:100cb00003003d00a04580000000e800a04588003a
:100cc000e0458000f0458800c045800090458800e0
:100cd000a04580000000e00002003c000000eb00a6
:100ce000a0458800a1458000b0458000808f50005d
:100cf00002003500b0458000a04588000080fa0061
:100d000000000600ff3ffc00c244800002005000cb
:100d10000a02020000000000020040000000fc0087
:100d200000000600ff3ffc002943800030438000a4
:100d3000414380000a0202000000000000804400dd
:100d40002043880039438000414380000a020200aa
:100d50000000000000805400304388000000fc00c8
:040d60000000060089
:020000040000fa
:0200000401f009
:04000000f7ff000006
:020000040000fa
:0200000401f009
:04000400c0ff000039
:020000040000fa
:0200000401f009
:04000800dfff000016
:020000040000fa
:1000080006070000060700000607000006070000b4
:1000180006070000060700000607000006070000a4
:10002800060700000607000006070000300500006c
:100038000607000006070000060700000607000084
:100048000607000006070000060700000607000074
:100058000607000006070000060700000607000064
:100068000607000006070000060700000607000054
:100078000607000006070000060700000607000044
:100088000607000006070000060700000607000034
:100098000607000006070000060700000607000024
:1000a8000607000006070000060700000607000014
:1000b8000607000006070000060700000607000004
:1000c80006070000060700000607000006070000f4
:1000d8008605000006070000060700000607000066
:1000e80006070000060700000607000006070000d4
:0800f8000607000006070000e6
:020000040000fa
:1001080006070000060700000607000006070000b3
:1001180006070000060700000607000006070000a3
:10012800060700000607000006070000300500006b
:100138000607000006070000060700000607000083
:100148000607000006070000060700000607000073
:100158000607000006070000060700000607000063
:100168000607000006070000060700000607000053
:100178000607000006070000060700000607000043
:100188000607000006070000060700000607000033
:100198000607000006070000060700000607000023
:1001a8000607000006070000060700000607000013
:1001b8000607000006070000060700000607000003
:1001c80006070000060700000607000006070000f3
:1001d8008605000006070000060700000607000065
:1001e80006070000060700000607000006070000d3
:0801f8000607000006070000e5
:020000040000fa
:100d640050080000680000000200000000000000bd
:100d7400006400000000000000000000000000000b
:100d8400000000000000000000b87e0000005c00cd
:100d940005e823000300e800230300001200030019
:100da40000000000000000000000000000001b0024
:100db400000300000000000000000000000000002c
:100dc40000fc1c005078400015c0ea00000011002f
:100dd4000100000000000a00000300000000000001
:100de400000a000003002c000100000000000000c5
:100df400003200002c010000b808000008000000c8
:080e04000000000000000000e6
:020000040000fa
:080e0c000040da000000fe00c6
:00000001FF
